:020000022000DC
:1070000000000220757302005D7302005F730200CE
:1070100061730200637302006573020000000000E8
:107020000000000000000000000000006773020084
:1070300069730200000000006B7302006D730200B0
:1070400069AC02006F73020005B102006F730200A9
:107050006F7302006F73020089AF02006F7302004A
:107060006F7302006F7302006F7302006F73020090
:107070006F7302006F7302006F7302006F73020080
:107080006F730200D98702006F7302006F730200F2
:107090006F7302006F730200BD0F03006F73020075
:1070A0006F7302006F7302006F7302006F73020050
:1070B0006F7302006F730200000000000000000008
:1070C0006F7302006F7302006F7302006F73020030
:1070D0006F7302006F7302006F7302006F73020020
:1070E0006F7302006F7302006F73020000000000F4
:1070F000000000006F730200000000006F730200C8
:10710000000000000000000000000000000000007F
:10711000000000000000000000000000000000006F
:10712000000000000000000000000000000000005F
:10713000000000000000000000000000000000004F
:10714000000000000000000000000000000000003F
:10715000000000000000000000000000000000002F
:10716000000000000000000000000000000000001F
:10717000000000000000000000000000000000000F
:1071800000000000000000000000000000000000FF
:1071900000000000000000000000000000000000EF
:1071A00000000000000000000000000000000000DF
:1071B00000000000000000000000000000000000CF
:1071C00000000000000000000000000000000000BF
:1071D00000000000000000000000000000000000AF
:1071E000000000000000000000000000000000009F
:1071F000000000000000000000000000000000008F
:10720000354936480A1A02D0072291438D4634493F
:1072100034480A1A06D00722914381F309880222D2
:1072200082F3148830483149314A00F044F831483B
:107230003149324A00F03FF831483249324A00F0D1
:107240003AF832483249334A00F035F83248334987
:10725000334A00F030F833483349344A00F02BF811
:1072600033483449344A00F026F83448344900227F
:1072700000F02CF833483449002200F027F8334856
:107280003349091A082902DB002202604160314AB1
:1072900090471F481F49884205D00268043003B454
:1072A000904703BCF7E700208646EC46002000210B
:1072B000294A9047FEE7884207D0521A05D0037842
:1072C00001300B700131013AF9D17047884202D088
:1072D00002700130FAE770470000022000E0012050
:1072E0000000022000000220843B0300FC2A002052
:1072F000002C0020D0730200D07302005015030050
:10730000843B0300FC2A0020FC2A0020D016030046
:10731000D0160300D0160300D0160300D0160300C9
:10732000D0160300D0160300D0160300843B0300E0
:10733000883C0300002C0020002C0020002C0020A2
:10734000243E0020243E0020243E0020243E002035
:10735000245E00209D730200F5C20200FEE7FEE7F6
:10736000FEE7FEE7FEE7FEE7FEE7FEE7FEE7FEE7F5
:1073700000F002B8FFF7FCBF0F484FF00701884349
:1073800085460E4880470E48016841F4700101604F
:10739000BFF34F8FBFF36F8FFFF732BF09480A4922
:1073A0000A4A884207D0521A05D0037801300B7080
:1073B0000131013AF9D170470000022069A60200AC
:1073C00088ED00E0BC160300E82A0020FC2A00201B
:1073D000F0B595B01D46164608460C4603F04CF82D
:1073E0001A9B0D93CDE9086500252B46082205A9B7
:1073F00020460A958DF82C500C9503F059F8079B00
:107400000293069B03939DF814308DF8115003F0FE
:107410000302012A1DD1BDF81420059DC3F3C20348
:10742000C2F383168DF81030B20008230EA920464F
:1074300003F03EF8C5F3952508AB0093324602AB46
:107440000EA9284600F0C8FB204603F019F815B035
:10745000F0BD022AF8D1BDF81650C3F3C203C5F33C
:1074600089158DF810300827082D2E4628BF0826CC
:107470003B4632460EA9204603F01AF8AD1B08AB76
:1074800002AA31460EA8374400F00AFC002DEBD1C9
:10749000DAE70000014B01221A707047412C0020EE
:1074A0007047000070B50E4D06460FCD88B06C4693
:1074B0000FC495E80F00002E84E80F00094A0A481F
:1074C0004FF0060308BF00226946009303F054FB07
:1074D00008B100F0B7FD054B1E7008B070BD00BFCD
:1074E000D016030095740200FC2A0020002C002016
:1074F00007B5044B0093044A4023FFF769FF03B02C
:107500005DF804FB0D750200012C002038B50D4814
:107510000D4C0E4D002323700378EB5CD2B263B1A7
:10752000043004F0B9FA08B100F08CFD084B1A7869
:1075300012B12378002BFBD038BD0C3004F03CF89E
:10754000F1E700BFFC2A0020412C0020B0340020CD
:10755000002C002008B50848084A0378D35C3BB1EA
:10756000043004F009FABDE808400020FFF79ABF94
:107570000C3003F0B9FFF6E7FC2A0020B0340020FD
:107580000120FFF78FBF000008B5FFF7F9FF04489F
:10759000042100F08BFA034B01225A7108BD00BF91
:1075A000AC160300102B0020037813F0040216D051
:1075B00003F00303012B03D0022B09D001207047F5
:1075C0000A6800880232C0F3831002440A60F5E7BB
:1075D0000B684288023303EB92130B60EEE7104610
:1075E000704700002DE9F04FDFF81CA187B00F466F
:1075F00000230446861C0DF1070015468DF8073060
:1076000000F07CFFDAF804203A60DAF8083003F57D
:1076100080739B1A0AF21C470AF583690AF2144820
:10762000B3421AD30020002D69D004F00F039B0150
:1076300043F0050363F30F00DAF80430DAB20332E3
:1076400033444AF822009DF80700CAF8043000F0DD
:1076500079FF012007B0BDE8F08F0121384602F024
:1076600077F9484602F08FF9404602F08CF9DAF8D3
:1076700008000290C0B203300AEB800002A9FFF7B5
:1076800093FF029B30BBDAB20AEB8202D16803910E
:107690009A1C0133DBB20AEB83030292D3F80CB0DD
:1076A00001F00303012B22D0022B15D08346404664
:1076B00002F06CF910B1029BCAF8083059463846FE
:1076C00002F046F9DAF80830DAF8042003F580739E
:1076D0009B1AA5E7D8B2CEE7BDF80E30C3F38913E5
:1076E00003334FEA1B4B02EB93030293DFE7BDF832
:1076F0000C30C3F383134FEA1B4B1344F5E7A40587
:1077000044F0060098E700BF142D0020064B074800
:1077100010B500221A7002F068FE044610B9044841
:1077200002F010FF204610BD142D0020D0150300DC
:107730002417030030B50A4C71B10A4A0A49121BDA
:10774000D20800239A4201D1002030BD31F82350E5
:10775000854202D00133F5E7034654F83300F4E7DD
:10776000E4150300AC160300FC2A0020094B013984
:1077700003EBC000032909D8DFE801F00A02040680
:1077800004207047007970474079704700207047A7
:1077900002207047E415030070470000034BD3E953
:1077A0000130C31A58425841704700BF142D0020C1
:1077B0002DE9F04186B0FFF7F1FF0546002840F0C3
:1077C000ED80774CC4F81804BFF34F8FA368029381
:1077D000DBB2033304EB830002A9FFF7E5FE029B53
:1077E00018B1D4F81824002A5AD0DAB2991C0133FF
:1077F00004EB8202DBB204EB8303D268DB68049300
:1078000002F00303022B0392029154D1BDF80E3013
:107810006448C3F38917502F3E4628BF502606F10F
:10782000080166F38F13C1F30901ADF80E3002F0C1
:10783000F4FD0546002800F09C8002F01DFE0023A8
:10784000082203A9284602F029FE0299CB43DBB2A5
:107850000133C9B20331B6EB830F4FEA830204EB65
:10786000810125D95FFA82F80823A6EB080628468D
:1078700002F014FEF6B208F108034B4903F0FC03D2
:107880003246284602F00AFE029B033703EB9707B5
:107890000297D4F81834002B43D1D4F8106453E085
:1078A00062689A4294D8A260284606B0BDE8F0818A
:1078B00008233246E5E7012B5BD1BDF80C3039488F
:1078C000C3F38311062928BF062161F3891302310E
:1078D00001F00F018900ADF80C3002F09EFD054665
:1078E000002846D002F0C8FD0023082203A928463C
:1078F00002F0D4FD0026BDF80C20C2F38312B300C1
:10790000964203F10803C4D202994A1CC9B203315A
:10791000029204EB81010422284602F0BFFD0136E9
:10792000E9E7284602F0ACFDFFF738FF80F00100E0
:10793000C5B2B9E7F3685B7923B1336829461B68A0
:1079400030469847F3681E68002EF3D1284602F0AF
:1079500097FD0DF107008DF8076000F0CFFDD4F81A
:1079600018340BB9029BA3609DF8070000F0EAFDF4
:10797000DAE7D4F8104454B90C4B0D480D49C01A3D
:10798000C008000440F0020000F05EF8CCE7236875
:1079900020469B689847E3681C68ECE7002583E76E
:1079A000142D0020D0150300202D0020E415030025
:1079B0000C1603000D1703002DE9F34704460E468D
:1079C000924601A9012218469946FFF70BFE1C4F6B
:1079D00010B3019D4FF00008AA1CC84508EB020136
:1079E00025D11848002101F06CFF80F3100000043D
:1079F00040EA1440E4006B1C04F03804DBB2EDB242
:107A000044F0010407EB8303033544EA881444EA95
:107A10008624D86047F825403B781BB1FFF7C8FEA5
:107A20000028FBD1FFF7B8FE02B0BDE8F087C9B26D
:107A300007EB81015AF82830CB6008F10108CCE748
:107A4000142D00203031002000231A46FFF7B4BF68
:107A500007B50123019201AAFFF7AEFF03B05DF85D
:107A600004FB07B5CDE9002302236A46FFF7A4FF14
:107A700003B05DF804FB1FB5CDE90123069B03931A
:107A800001AA0323FFF798FF05B05DF804FB1FB5BB
:107A9000CDE90023069B0293079B03936A460423C8
:107AA000FFF78AFF05B05DF804FB000030B50F4C0E
:107AB000D4F8102403460020114631B9D968087162
:107AC0004AB9C4F810340A6030BDC9680D798542DE
:107AD00006D00968F1E7D26814680C601360F3E718
:107AE00001300A28E8D14FF0FF30EDE7142D0020D7
:107AF00038B5084B0125D3F810441D7004B938BDC2
:107B0000E3685D71236820465B689847E3681C68FA
:107B1000F4E700BF142D002030B5C38885B00446BB
:107B20000D4633B1144A00921449154A284601F013
:107B300090FF217A05291DD0637A4BB1A088FFF709
:107B400015FE104B104953F82020284601F081FF04
:107B5000227A0E4BA08853F8222003920021FFF7CF
:107B6000E9FD039A0A490346284605B0BDE83040BE
:107B700001F06FBF05B030BD501703003817030088
:107B800030170300BC170300A72E0300E017030003
:107B90005517030007B503460846197A052911D081
:107BA0005B7A2BB1094A0A49019001F052FF019812
:107BB0000849019001F04DFF019803B05DF804EB16
:107BC00001F03CBF002AF8D0F2E700BF50170300D5
:107BD000A72E03004D1703002DE9F04385B01F4683
:107BE0000C9D002395F80C902B7306460C4690468E
:107BF00029463846FFF790FFB8F1060F09D8DFE8AD
:107C000008F00412181F283340003146284601F0BE
:107C100020FF002229463846FFF7BCFF85F80C906C
:107C200005B0BDE8F08322683146284601F011FF17
:107C3000EFE7D4E900233146284601F00AFFE8E7E0
:107C4000A36800933146D4E90023284601F001FFE0
:107C5000DFE7E3680193A36800933146D4E900238A
:107C6000284601F0F6FED4E723690293E368019306
:107C7000A36800933146D4E90023284601F0E9FEC9
:107C8000C7E76369039323690293E3680193A368D9
:107C900000933146D4E90023284601F0DAFEB8E724
:107CA00008292DE9F74F80460E4617461C463DD859
:107CB00000251B7B2573214610460193FFF72CFFFF
:107CC000DFF88CA0DFF88CB0AE4232D918F805206E
:107CD0005946204601F0BDFE0135082DF4D11B495F
:107CE000DFF874A0DFF874B0204601F0B2FE4FF068
:107CF00000094E4524D918F809507E2D1ED8284673
:107D000009F058FB002814BF2A462E225946204667
:107D100001F09FFE09F10109B9F1080FE9D1012233
:107D200021463846FFF736FF019B237303B0BDE8B9
:107D3000F08F5146204601F08CFECDE72E22E5E77C
:107D40005146204601F085FEE4E700BF69170300B5
:107D5000651703005F170300671703006B17030025
:107D6000C30710B507D4F023054A4008145C23402C
:107D70001943115410BD0901C9B20F23F4E700BF24
:107D8000E031002030B5094B1C78094B19680023FD
:107D90009C4202DC0022104630BD11F8335085426F
:107DA00001EBC302F7D00133F2E700BFCC31002072
:107DB0000032002013B504460191FFF7E3FF38B10C
:107DC00043682BB10199204602B0BDE81040184726
:107DD00002B010BD034B044819680022490800F0A6
:107DE00055BA00BFD0310020182B002010B5C0B20A
:107DF000FFF7C8FF0446007803F0B8F863785A1E0E
:107E000053425341834208D1044BD3E90023134327
:107E100003D1BDE81040FFF7DDBF10BDD831002011
:107E200037B54308374AD35CC2074CBF1B0903F080
:107E30000F0304460D46042B25D8DFE803F0032684
:107E40002F3C4000F9B10121FFF78AFF00230DF11B
:107E500007008DF8073000F051FB0120A4F120034A
:107E6000C4F12001284A20FA01F100FA03F30B4380
:107E7000A040D2E9004120430B43C2E900039DF832
:107E8000070000F05FFB03B030BD002918BF0221DE
:107E9000204603B0BDE83040FFF762BF49B103217F
:107EA000FFF75EFF0121204603B0BDE83040FFF739
:107EB00081BF0121ECE70029E5D10421E8E709B100
:107EC0000321E5E7FFF74CFF29462046FFF772FF45
:107ED0000DF107008DF8075000F010FB0120A4F110
:107EE0002003C4F12001084A20FA01F100FA03F34B
:107EF0000B43A040D2E9004124EA000021EA030339
:107F0000BBE700BFE0310020D83100202DE9F0416F
:107F1000124E134F00243378A34208DC114BD3E9EF
:107F20000023134318D0BDE8F041FFF753BF3D686D
:107F300005EBC40815F8340003F018F898F8013080
:107F40005A1E53425341181A4142414115F8340018
:107F5000FFF766FF0134DEE7BDE8F081CC31002099
:107F600000320020D8310020092AF7B505460C461A
:107F700016463ED902F022FFE8B11F4B1F481D6094
:107F80001F4B204F1C70204B002120221E6009F047
:107F90007CFA1E4B00200021C3E90001013CE4B241
:107FA0000326FF2C0DD11A4A1A48002103B0BDE860
:107FB000F04000F059B902F0BDFE0028DDD003B05A
:107FC000F0BD9DF8063015F834008DF8046005EB1F
:107FD000C40223F007038DF8063001A993788DF8C9
:107FE00005303A4602F0F4FE013CE4B20028D8D055
:107FF000E5E70720E3E700BF00320020E031002082
:10800000CC310020ED7D0200D0310020D83100209D
:108010000D7F02000018030070B5084D084E0024C3
:108020002B789C4201D3002070BD3368012113F8E6
:10803000340002F04DFF0134F2E700BFCC310020E4
:10804000003200201FB50021039001AA44F2010074
:10805000CDE9011100F004F805B05DF804FB000063
:1080600038B572B6FFF744FDFFF7A2FB0028FBD13D
:10807000104B114C114D1249E41AE408240444F049
:108080000100FFF7E1FCD5F8F030DB0700D500BEBA
:108090000C4944F00200FFF7D7FCBFF34F8FEA68AA
:1080A000094B02F4E0621343EB60BFF34F8F00BF54
:1080B000FDE700BFE41503000C16030000ED00E02F
:1080C00004180300101803000400FA0510B5D0E9E5
:1080D0000243D1E90202A04272EB03032CBF01204C
:1080E000002010BD08B50A4800F05FFB094AD2E93C
:1080F0000031C018084BD3E9002341F10001904240
:1081000071EB030303D210F1807041F1000108BD4F
:10811000382B0020083200208032002037B5054679
:108120000C460A4801A901F000FB60B105704460EB
:1081300001A9064801F023FB18B1054800F03AFBFD
:10814000002003B030BD0420FBE700BF6C320020EC
:10815000382B0020294B73B51E7804461EB9002623
:10816000304602B070BD0028F9D0FFF7BBFFD4E95C
:1081700002239042994139D300230DF107008DF875
:10818000073000F0BBF923692BB94FF0FF324FF0F5
:10819000FF33C4E902239DF8070000F0D3F9D4E9C6
:1081A0000530984700250DF107008DF8075000F0C5
:1081B000A5F92369C3B1D4E90212B2F1FF3F08BFA8
:1081C000B1F1FF3F05D05B1842F10002C4E9023271
:1081D00035469DF8070000F0B5F9002DBFD00848DE
:1081E000214602F0CEF9BBE71D46F2E7B3F1FF3FAF
:1081F00008BFB2F1FF3FB2D0F1E700BF103200205C
:108200002C18030013B5114B11491868019008236D
:108210001048582201F054FA044698B90E4A0F4803
:1082200001A900F0B3F9044660B90C48012100F03F
:108230009FFA01230A4A0948194600F001FA094B3E
:1082400001221A70204602B010BD00BF281803009A
:10825000143200206C32002045830200382B0020AD
:10826000FFFF7F001032002030B56AB103684FF085
:10827000FF344FF0FF355A614A1E5142C3E90245AF
:1082800051411961002030BD0720FCE7F7B50446D5
:1082900000250DF1070017460E468DF8075000F037
:1082A0002DF9D4E90223B3F1FF3F08BFB2F1FF3F3C
:1082B00007D1FFF717FF301841F10001C4E90201AF
:1082C00001259DF8070000F03DF955B12369A7612C
:1082D00003B126612146002003B0BDE8F040FFF75E
:1082E0001DBF284603B0F0BD37B5054600240DF18B
:1082F00007008DF8074000F001F9D5E90223B3F13A
:10830000FF3F08BFB2F1FF3F1FBF4FF0FF324FF0FA
:10831000FF33C5E9022301249DF8070000F012F99C
:1083200034B12946012003B0BDE83040FFF7F6BE66
:10833000204603B030BD0000014800F036BA00BF4F
:10834000382B00202DE9F743064600F019FA40B11A
:10835000624AD2E9003113F1807341F10001C2E9B0
:1083600000310021304600F01AFA38B15C4C236825
:1083700023B12068FFF7EEFE002323600121304681
:1083800000F00DFA20B1FFF7ADFE564BC3E9000136
:108390005548534C01A901F002FA4FF0FF384FF055
:1083A000FF39A0B9DFF844814D4D404602F0FFF897
:1083B000002800F08580D0E90223B3F1FF3F08BF19
:1083C000B2F1FF3F32D1404602F0EBF8EDE703781F
:1083D000012B20D0022B08D1444D284602F0E1F8B1
:1083E000002877D0C0E90289F7E75BB94168D1E995
:1083F0000223B3F1FF3F08BFB2F1FF3F02D03B4879
:1084000002F0BFF801A9384801F0F4F901A9364893
:1084100001F0C5F9C5E741682368994202D10023FC
:108420002360EFE7314802F0C5F8EBE7296891B126
:108430002968D1E9020182428B412FD22B68D3E90E
:108440000223B3F1FF3F08BFB2F1FF3F03D0296819
:10845000404602F096F8404602F0A3F8D0E90249FF
:108460000746FFF73FFE201A69EB0109012879F161
:10847000000318DBB0F5350F13D3FFF75DFF1C4A7F
:1084800002441C484FF49603002100F0F9F890B91B
:108490002B6813B9304600F0CBF82F6003B0BDE86D
:1084A000F0832246EDE71348002100F06EF93846CC
:1084B000FFF750FE01E00D28F9D000232B6074E790
:1084C000074B1B68002BE9D1304603B0BDE8F043F1
:1084D00000F0B2B8084B01221A7093E7083200206E
:1084E00088320020803200206C3200202C180300DB
:1084F000FFFFB400382B00201032002070B5EFF3DE
:10850000108672B60C4A946801239CB993600B4B99
:108510000B4DD3F8801029401160C3F88050D3F878
:10852000841051604FF0FF32C3F88420047006B904
:1085300062B670BD0370FAE78C32002000E100E003
:10854000FC06FFBD084B9A6810B55AB150B9EFF35D
:10855000108172B6054A1C6814605C6854609860AB
:1085600001B962B610BD00BF8C32002000E100E00E
:10857000435882B03BB10023435043580193019BC1
:10858000012002B070471846FBE70000F8B5204B09
:108590004479204E43F824201F4A204B06EBC404A4
:1085A0009B1A2279DB081B0432B143F002001C49FC
:1085B000FFF74AFA0820F8BD02680C88C2F808459F
:1085C00090F904508A7804795201002DD2B219DB57
:1085D00014494F1987F8002301226D0904F01F0484
:1085E00002FA04F441F82540427906EBC201012465
:1085F00046F832000C7143F003000B49FFF724FAF0
:108600000020D8E7094904F00F040A55ECE700BF41
:10861000A032002098320020E41503001C1603004D
:108620003818030000E100E05A18030014ED00E0E0
:10863000036801221A607047036801225A6070477C
:1086400073B501F15005AD000068ADB24FF4803450
:108650008C400026C0F80843C0F84843465101F555
:10866000A8714559019522F07F42019D40F82120D3
:10867000C0F844430BB1C0F8044302B070BD000021
:108680002DE9F74F0D4622F07F4402684FF4803702
:1086900005F150068F408046B60002EB8500C2F817
:1086A0004873B6B2C2F80873D2F8041599464FF071
:1086B000000BD0F84035C0F8401542F806B05B1A00
:1086C0009259009223F07F43012B009A4FEA850ACA
:1086D0000CD1264B4FF4806043F001039847D8F843
:1086E000003043F806B09B590193019BD8F8001065
:1086F000D1F80465C1F84473A31B23F07F43012B19
:108700001CD11A4B05F5A875013443F0010341F85B
:1087100025404FF480609847D8F80030D3F80435EE
:108720009E4209D1D8F800300020C3F84473C3F842
:10873000047303B0BDE8F08F0D20FAE78A44C9F155
:10874000FF13CAF84045D1F80405221A013A22F075
:108750007F4203F57F439342EED3002AE2D10134F6
:10876000CAF84045D1F804359842DAE7701803009A
:1087700003680222C3F8442309B1C3F804237047F5
:1087800000684FF48271FFF7F3BE4FF4803303FAB1
:1087900001F10368C3F84813C3F808137047503158
:1087A0008900006889B2FFF7E3BE0368D3F80405C7
:1087B0007047000090F90430002B09DB5A090121B1
:1087C00003F01F0301FA03F34032024941F822305B
:1087D000704700BF00E100E0024B034A1B681068CD
:1087E000184700BFA03200209832002070B5064D17
:1087F0000646002455F8043B0BB130469847013437
:10880000042CF7D170BD00BFB03200204388033381
:1088100000EB830399420BD382884FF6FF739A4291
:1088200008D0038833B18068431C584258417047D0
:108830000220704701207047033080B240F2FE33BF
:10884000984230B51FD8134B1A783AB91C895D8904
:108850002C440444A4B2B4F5806F0AD91A7DAAB995
:108860009A8BDC8B2244024492B2B2F5806F0DD811
:1088700001220A801446142202FB04335A89104450
:108880005881002030BD48F20860FBE748F20660DE
:10889000F8E700BFE43200200B4A0C49538814204B
:1088A00000FB0311CB6833B9042049681070012222
:1088B000074801F063BB07490523137002238B802F
:1088C000012209680023F3E7C8320020E4320020C7
:1088D000E82A0020AC33002007B5002305490093A7
:1088E000054A09680548082301F0AEFA03B05DF8AF
:1088F00004FB00BFAC33002084180300E82A0020EA
:1089000007B5002301460093034A0448082301F0F9
:108910009BFA03B05DF804FB7C180300E82A0020F2
:1089200013B500230C4600930146084A0848042367
:1089300001F08AFA38B9074B142101FB04310123F5
:108940000B7402B010BD48F20D60FAE7781803000E
:10895000E82A0020E432002037B50A480A4B426872
:108960009C88196853880325033305709BB2002047
:1089700000909B0001EB8401044801F065FA03B00C
:1089800030BD00BFC8320020AC330020E82A0020F0
:1089900010B50146044800F0C8FE1C220446002120
:1089A00008F073FD204610BD9833002068B10268BE
:1089B000084B9A4209D14068074B984207D00133CF
:1089C000984214BF03200120704703207047002005
:1089D000704700BFDEC0ADDEFE011EF12DE9F041A3
:1089E0000D460223154F2B80164600F5805100F1ED
:1089F00008044FF001088C420ED2236801330BD0DB
:108A00002046FFF703FF48B10EB186F80080022828
:108A100009D14FF480632B80BDE8F081A3683A68E8
:108A2000934200D93B602B886288033313442B8028
:108A30006388033304EB8304DDE700BFDC320020EE
:108A400038B5144B14220D4602FB00302B684468E5
:108A500004F58051A3B15C88033403EB84048C4299
:108A600015D22368013312D02046FFF7CFFE01282C
:108A700008D002280BD00028F1D12C60012038BD8D
:108A80000834ECE76388033304EB8304E7E7002052
:108A9000F5E700BFE4320020426873B504460D4696
:108AA0006AB3234BD9688A4229D31B699A4226D8D4
:108AB00012F0030323D11F490089098988421ED17E
:108AC0002068916888421AD11B4841688A4203D9BC
:108AD00001F580518A420DD381698A420CD901F592
:108AE00080518A4208D201222A80B3FA83F04009D9
:108AF00002B070BD1A46F7E748F20963F5E70026B1
:108B00002E800196288801A9FFF79AFF30B92B889B
:108B100001339BB2012B2B80F3D9E9E7019B22683B
:108B200099689142EED16360024B1B892381DFE794
:108B3000E82A0020C8320020E43200202DE9F84362
:108B40001C461D4B1B7806460F46154673B382B371
:108B50007CB3DFF86C804FF01409A388012B02D995
:108B600048F2096020E009FB03F318F803302BB941
:108B7000A0882146FFF764FF20B92060A388013355
:108B8000A380EAE723681EB1998832889142EFD129
:108B90001FB119883A889142EAD19A68C5E9002341
:108BA000064B1B892B810020BDE8F88348F2016049
:108BB000FAE748F20460F7E7C0320020C83200202C
:108BC000E432002008B5074B5888191DFFF738FF1D
:108BD00018B1BDE80840FFF7BFBEBDE80840FFF789
:108BE0005BBE00BFC83200202DE9F0479F4FDFF881
:108BF000A08288B006463B6823B99D48414600F0F4
:108C0000CEFD38603D6829784B1E052B07D8DFE87C
:108C100013F0200074007400060106015D0148F2A3
:108C20000E641422002103A808F02FFC41F61D5306
:108C30009C4208BF00243B6804941A78023A042A34
:108C400000F2FC81DFE812F0DD01E9010B02130202
:108C50001A022EB1874B00225A604FF40644E0E717
:108C60002B79032B1CD8DFE803F014022A35824A43
:108C70001378022B1AD0137D022B4FF0010317D16A
:108C800014214B43D1180020D0544868FFF738FE18
:108C900003E001232B71FFF71FFE002800F0B980CD
:108CA000744B00225A6048F20D64BAE70023E7E7EC
:108CB000704A13700023536041F61D54B1E76F49A9
:108CC0006F48002302222B718A800968012201F07B
:108CD00055F9E2E76B4B684C5B88684A14214B43BB
:108CE000E11800262E714D6810681560958848605F
:108CF0000D810221E6549180C8E7B5F814A0AA7D41
:108D0000DFF87491AEB1022AEB8806D9142101FB79
:108D10000A91DA1C088902440A81142202FB0A998A
:108D2000C3F57F43B9F80A20FD331344A9F80A308C
:108D300093E7142303FB0A9318895C6804EB80040F
:108D4000062A69D8DFE802F0274E36441D5A04008F
:108D500041F61D54AA7DEB88022A06D9142101FB95
:108D60000A91DA1C088902440A81142202FB0A993A
:108D7000C3F57F43B9F80A20FD331344A9F80A303C
:108D80004FE74148414900234360AB690360FFF767
:108D900083FE00285BD00223AB75002300930423DD
:108DA000EA182146364801F04FF8002831D048F241
:108DB0000D64CFE72B69002B14BF03230123AB7590
:108DC0000023009305F10C02042304F10801E9E7F4
:108DD0000123AB750022EB8800922A699B0004F105
:108DE0000C01DFE703290CBF05230623AB75002325
:108DF0000093042305F10802E118D3E70623AB75BD
:108E0000224B1988204B5868FFF78AFD044600283A
:108E1000A0D108B0BDE8F08748F20E649AE7002EB2
:108E20007FF41BAF2B79012B34D0022B3FF444AFDE
:108E3000002B7FF4F4AE02232B710DF10A01EB68D5
:108E4000039303A8CDE90466FFF726FE10B948F2A4
:108E50000964E6E60498BDF80A108388EB8003886D
:108E60002B81FFF75DFD044629E000BFE0320020C2
:108E700098330020C0320020E4320020AC330020C0
:108E8000E82A0020C8320020A4320020B833002095
:108E9000D8320020DFF8009203AA4B463146A81DC5
:108EA000FFF74CFE044670B9B9F804100498FFF7B8
:108EB00037FD044648F209639C423FF4FDAE002CA6
:108EC0007FF4AFAEA5E7C9E90066F3E7002E7FF4B3
:108ED000C4AE6C4B1A7BBAB11E731A78013A062ADB
:108EE0003FF69DAE01A151F822F000BF978F02001E
:108EF000BD8F0200DB8F0200E18F02001F8C020099
:108F0000E78F0200F98F02001A78072AE5D801A13D
:108F100051F822F0358F0200DB8E0200DB8E02005A
:108F20005B8F02006F8F0200938F0200938F02000D
:108F3000578F02001A89544901321A8100225A803F
:108F40001A730A78B2FA82F252099A720A7DB2FA58
:108F500082F25209DA72012207E04C4958688A8885
:108F60004088033202448A8002221A70B5E75C8886
:108F7000454A4649142505FB042208685468506098
:108F80008888108102200C608880002111740622DC
:108F9000EBE70722E9E79A7A32B9DA7A8AB900224E
:108FA0001A705A805A6087E6374900229A72CA6856
:108FB000002AF2D1097C0029EFD05A80FFF702FE87
:108FC00051E70022DA72304A116A0029E7D192F89B
:108FD0002420002AE3D00122EFE7FFF7BDFC42E79F
:108FE000FFF75AFC3FE75A88274B142101FB023355
:108FF0005868FFF785FC36E700225A60FFF76CFCE3
:1090000031E701228DF80C201A89ADF818209A88D2
:10901000DB68ADF81A20059310E002228DF80C20D1
:109020001A89ADF818209A88ADF81A20DA689B7D65
:1090300005929A1F534253418DF81C3003A8FFF745
:10904000D5FB0026414612483E6000F0D3FB114894
:10905000012100F089FC00287FF4CDADD9E6032280
:109060008DF80C20DA88ADF818201A89D0E7042290
:109070008DF80C20DB88ADF81830DFE705238DF87C
:109080000C30DBE7C8320020E4320020AC33002093
:1090900098330020A8330020BC3300204068FFF73D
:1090A000A3BD000008B50548012100F045FC18B932
:1090B000BDE80840FFF798BD08BD00BFA8330020F9
:1090C0002DE9F3419846374B1B7806460D46002B99
:1090D0005CD000295DD009884FF6FF7399425BD0C0
:1090E0006B88002B58D06B689B0758D14AB92F89E1
:1090F0000DF102013846FFF79FFB30B102B0BDE829
:10910000F08113885788ADF8023001A8FFF740FCC2
:10911000044660B9BDF80220234B142101FB023341
:1091200058890338C01B588148F20760E6E780F889
:10913000008000238375BDF8023083826B68036171
:1091400001211A4800F004FC2B882381B8F1030F99
:109150006B88A38004BF0423A3754FF0000508BFEC
:109160003368E06008BFA3611148E780658101A909
:1091700000F005FB36B1E36833600E4B75601B8968
:10918000B5723381FFF78EFF0020B7E748F2016028
:10919000B4E748F20460B1E748F20360AEE748F292
:1091A0000260ABE7C0320020E4320020DC32002055
:1091B00098330020C832002008B5034607480268EB
:1091C000042A08D00168064A42F82130012100F043
:1091D000BFFB002008BD48F20B60FBE7B433002062
:1091E000B03200202DE9F04FDFF8208289B0142240
:1091F000002103A808F049F998F8003003F0FF02B5
:1092000000923BB103A8FFF7F1FA0027384609B0F6
:10921000BDE8F08F08F1040000F0B2FB0028F4D1A3
:10922000009BDFF8ECA1D3F8F83F5C1C08BF4FF0BF
:1092300010234FF0805208BF5B6911695269581CB6
:1092400008BF02FB01F3CAF810306949A3F5405387
:1092500000225046CAF80C3000F0C4FD0746002832
:10926000D4D11C2363496448DFF8A8B18C2200F0F4
:1092700027FA0323B9463D4601933C46DAF80C60D1
:109280004E443046FFF792FB012867D0032817D0E1
:1092900000283DD159494FF0140C0CFB04FC01EBA4
:1092A0000C0201F80C0056600CF110020CF1080CD5
:1092B0000A4430466144FFF791FB45F002054AE05D
:1092C0003268531C02D04E4B9A4239D1321D06F5FA
:1092D00080511068013033D104329142F9D1DBF86A
:1092E00000203AB902220123CBF80060ABF8042039
:1092F00000930BE014226243404B022099189854CB
:10930000404A4E60548001340881A4B245F0010502
:1093100009F58059B9F5405FB0D1019B012B98BF89
:109320000025EDB2022D03D0062D36D0002D3ED102
:10933000002388F8003048F20A67C8F8043065E76F
:10934000019B2E495A1E93B214226243881801933E
:109350004660032088540134A4B2D9E7009B6BB166
:10936000264B14226243991802209854DBF80020FF
:109370004A60244A088154800134A4B20022224960
:10938000CBF800603046FFF729FBBBF80420022A27
:109390000CBF042208221543BAE7012388F80030E5
:1093A00003A80023C8F80430FFF720FA2EE702A82C
:1093B000FFF7EEFAC8B10123013D03700A2D09D869
:1093C000DFE805F006080608070807080F110F0078
:1093D0000023037102A9084800F0D1F9FFF762FEEB
:1093E00014E70323F5E70223F3E748F207670DE7E5
:1093F000781A03000C33002098330020E432002058
:10940000DEC0ADDEC8320020B0330020C032002004
:10941000E82A0020AC33002073B50D460446C8B1DD
:10942000C1B10DF10601FFF737FBB0B1BDF8063051
:109430000B486668142202FB030001210C3000F087
:1094400087FA63682E600C336B600123A3720020DF
:1094500002B070BD48F20460FAE748F20960F7E72D
:10946000E432002013B50446A8B10DF10601FFF760
:1094700013FB98B1BDF806200B4B142101FB0233FE
:10948000DA6872B1A27A62B1DA680020013ADA6071
:10949000A07202B010BD48F20460FAE748F2096019
:1094A000F7E748F20560F4E7E432002002230022E7
:1094B000FFF706BE18B103230022FFF701BE48F2F2
:1094C00004607047114B1B7813B50446ABB14FF6DF
:1094D000FF73984214D001A8FFF75AFA98B10523F8
:1094E000037001230371C48001A9094800F047F902
:1094F000FFF7D8FD002002B010BD48F20160FAE786
:1095000048F20360F7E748F20760F4E7C032002052
:10951000983300200F4B1B7807B5A3B101A8FFF7C4
:1095200037FA98B10623037001A90B4800F027F918
:109530000A4B1A780AB101221A73FFF7B3FD002013
:1095400003B05DF804FB48F20160F9E748F20760F8
:10955000F6E700BFC032002098330020C832002058
:1095600007B5ADF80600ADF804100DF1060001A92D
:10957000FFF7E4FA03B05DF804FB07B51346ADF856
:1095800006000A4600200DF10601FFF7D7FA03B0E6
:109590005DF804FB07B51346ADF806000A460DF169
:1095A00006000021FFF7CAFA03B05DF804FB20B102
:1095B00019B103680B600020704748F204607047DF
:1095C0002DE9F84F3C4B1B780446002B6DD000284A
:1095D0006ED0DFF8E8901222002107F056FF032337
:1095E00023804FF0000A4F4614264FF00108D9F8A7
:1095F0000410B9F80AB0B9F808500846FFF7D6F9D0
:10960000032808BF2388628804BF03F1FF33238047
:1096100006FB0A735D44DB681344638023899B4423
:109620006389A4F808B0ADB22B446381C5F58065A9
:10963000A389ADB2AB4238BFA58101F1080501F5A0
:109640008051A94229D92B68013326D02846FFF73B
:10965000DDF801280AD0022815D00028F1D1A3880E
:109660000133A3800AE04FF0010AC0E7E388013329
:10967000E380E3896A8803331344E3816B8803330F
:1096800005EB8305DDE7E38884F810804D1BE18955
:10969000013301EBA501E380E18109F11409BAF17D
:1096A000000FE0D00020BDE8F88F48F20160FAE733
:1096B00048F20460F7E700BFC0320020E432002027
:1096C00010B561B1B2FBF3F403FB1424A4B244B9A6
:1096D000C0E9001484608281C381204610BD0E2041
:1096E000FCE70920FAE782B050E8022FC188B2EB0C
:1096F000324F4FF0000317BF92B241EA014142EAF4
:10970000014104E04268B2EB324F08BF012340E858
:109710000212002AE8D18DF807309DF80730002B9F
:109720000CBF1120002002B0704737B550E8013F50
:109730009DB2C48925448489A54228BF2D1B048974
:10974000A54202BFBFF32F8F002207E0C5EA030541
:1097500040E80154002CE9D14FF001028DF80320BC
:109760000193019A0A609DF8031001F0FF0321B1F3
:10977000006810FA82F003B030BD1846FBE70A8893
:109780004B889A4209D150E8012FC2EA024240E8D0
:109790000123002BF7D1012070470020704737B517
:1097A00050E8023F1FFAA3F5C488A54202BFBFF3E9
:1097B0002F8F00220DE0C48925448489A54228BF4B
:1097C0002D1BC3EA054540E80254002CE8D14FF0B8
:1097D00001028DF803200193019A0A609DF803109D
:1097E00001F0FF0321B1006800EB124003B030BD6F
:1097F0001846FBE70A884B889A4209D150E8022FA5
:10980000C2EA224240E80223002BF7D10120704730
:109810000020704701F01F024B090121914000EB2D
:10982000830000F065B84B0910B501F01F04012159
:10983000A14000EB830000F04FF8E04000F0010091
:1098400010BD01F01F0301229A404B0900EB830079
:10985000D14300F065B84B0901F01F0150F8230017
:10986000C84000F0010070472DE9F0474F1E7F0906
:1098700080460E460137002558F8254008EB85093B
:10988000E44394FAA4F4B4FA84F44FEA451A202C81
:1098900006D10135AF42EFD834462046BDE8F08707
:1098A0005444A642F5D921464046FFF7BCFF0028A4
:1098B000F3D0D9F80040E44394FAA4F4B4FA84F461
:1098C000E5E710B5034653E8000F0A4643E80024D5
:1098D00094F0000FF7D110BD10B5034653E8000F08
:1098E00040EA010243E8002494F0000FF6D110BDD5
:1098F00010B5034653E8002F42EA010043E8000494
:1099000094F0000FF6D110BD10B5034653E8000FD8
:1099100000EA010243E8002494F0000FF6D110BDE4
:1099200010B5034653E8002F02EA010043E80004A3
:1099300094F0000FF6D110BD10B5034653E8000FA8
:1099400000EB010243E8002494F0000FF6D110BDB3
:1099500010B5034653E8002F02EB010043E8000472
:1099600094F0000FF6D110BD10B5034653E8002F58
:10997000A2EB010043E8000494F0000FF6D110BD03
:109980000121FFF7A9BF0121FFF7B2BF0021FFF7B7
:10999000BBBF10B590B1D0E9012301689B1ADBB2BF
:1099A0000A60013BDBB2FF2B026802D1002010717C
:1099B00010BD11684C1C14600B70F2E70E20F7E725
:1099C00037B5054600240DF107008DF80740FEF776
:1099D00095FD2A686B68116899420ED9481E10607F
:1099E00011F8013CEC68298A01FB0344AB6811794A
:1099F0001B1ADBB2994238BF13719DF80700FEF7BE
:109A0000A1FD204603B030BD37B5054600230DF15A
:109A100007000C468DF80730FEF770FD2A681368C2
:109A2000591C1160E968641A298AB4FBF1F41C70AE
:109A30009DF80700FEF786FD03B030BD826810B5C3
:109A400004462AB143690168006998470023A3606E
:109A500010BD0EB403B5039921B104AB01AA019363
:109A600000F076F802B05DF804EB03B070470A2905
:109A700038B504460D4602D10D21FFF7F8FFA36863
:109A80002268591CA160D554D4E901329A4204D30A
:109A90002046BDE83840FFF7D1BF38BD2DE9F84F6B
:109AA0009846DDE90A43154682460F460A464FF0BE
:109AB0000109AA420FD2C14538BFC14613F0010BBC
:109AC00001D16CB900240126B8F1010F1BD908F1AE
:109AD000FF386E43F8E709F10109B2FBF5F2E8E758
:109AE0009B070ED5B8F1000F0CBF30262026A145EC
:109AF000E9D2013C31465046FFF7B9FF002CF6D1C0
:109B0000E0E72026F3E7B7FBF6F39D42E1D9DFF863
:109B10003C80B7FBF6F3504618F8031006FB1377AA
:109B2000FFF7A5FF3346AB42B6FBF5F6F1D2BBF12A
:109B3000000F02D00CB1A14501D3BDE8F88F202160
:109B40005046013CFFF793FFF4E700BF8C18030079
:109B50002DE9F74F054617468846002900F03E815B
:109B600018F8011B49B92B7B002B00F037812846E0
:109B700003B0BDE8F04FFFF761BF252940F0B78083
:109B8000002698F800302D2B424608F1010823D01A
:109B9000302B24D02B2B25D000242A2B02F10101BD
:109BA00023D13B681A1D1B683A601C440A4613788F
:109BB0002E2B26D101324FF0000A104610F8011B5F
:109BC000A1F1300CBCF1090F1DD80A2303FB0A13C5
:109BD000A3F1300A0246F0E746F00106D1E746F06D
:109BE0000206CEE746F00406CBE711F8013CA3F1EC
:109BF00030000928DBD80A2202FB0434303C0A4634
:109C0000CBE74FF0000A12F8011B01F0FB006828B7
:109C10009046F8D0782909D86F290CD8632962D0EA
:109C200022D8252963D0582900F0888098F8003080
:109C3000002B95D197E770390829F7D801A353F87D
:109C400021F000BFB79D02002D9C02002D9C020058
:109C50004D9D02002D9C02002B9D02002D9C0200B8
:109C60002D9C02003D9D0200642901D06929DDD1AF
:109C70003A68D2F80090111D89EAE9723960A2EBC6
:109C8000E9724FF0010B092A35DCD34538BFD346C2
:109C90002CB1B9F1000F01DB720700D5013CB3070D
:109CA00002D5BAF1000F03D0F00701D44CBB002459
:109CB000B9F1000F2DDAC9F100092D212846FFF76F
:109CC000D6FE06F00302022A04D1BAF1000F01D138
:109CD0001CBB0024CDE9004653460A2249462846CB
:109CE000FFF7DCFEA2E73B681A1D19783A602846A8
:109CF000FFF7BDFE9AE70A230BF1010BB2FBF3F26B
:109D0000C1E7A345D4D220212846013CFFF7AFFE8E
:109D1000CCE77107D5D52B21D0E7A345DAD2302186
:109D20002846013CFFF7A3FED2E73968CDE900469B
:109D30000A1D3A6053460A220968D0E739680A1DAD
:109D40003A60CDE9004653461022F5E73B681A1DFC
:109D50003A6016F00106D3F8009024D1B9F1000F53
:109D600003D0484607F0C4FB0646B4421DD809F1AB
:109D7000FF3919F8011F00293FF458AF2846FFF7B3
:109D800076FEF6E728460136FFF771FE19F8061051
:109D90000029F7D1A642BFF449AF20212846013C53
:109DA000FFF765FEF6E70026F0E720212846013C94
:109DB000FFF75DFED9E73B681A1D3A60302128465F
:109DC0001C68FFF754FE78212846FFF750FE00225A
:109DD0000823CDE900322146102280E703B0BDE818
:109DE000F08F00BF13B50B46114680B9104B1148D8
:109DF000114AC01A0E23C0080093104B00041049EA
:109E000040F00100FDF737FE0E2002B010BD4BB947
:109E1000074B08480B4AC01AC0080E2300930004E1
:109E2000064BECE703601B6802B0BDE81040184722
:109E3000E4150300341603009C180300581A0300AD
:109E4000A1180300D01803002DE9F743DDF828809E
:109E500088B93E4B3E483F4AC01AC0080E243E4BCC
:109E6000009400043D4940F00100FDF704FE204647
:109E700003B0BDE8F0834AB9344B3548384AC01ABC
:109E8000C0080E24344B00940004EBE7D0F800E047
:109E9000BEF1000F09D12D4B2D48324AC01AC0081F
:109EA00008242D4B00940004DCE74BB9274B2848CD
:109EB0002D4AC01AC0080924274B00940004D1E79A
:109EC0004568D5F80490B3FBF9F509FB15354DB19C
:109ED0001E4B1F48254AC01AC00809241E4B009477
:109EE0000004BFE78D0709D0184B1948204AC01A53
:109EF000C0081024184B00940004B3E712F0030FBD
:109F000009D0124B12481B4AC01AC0081024124B29
:109F100000940004A6E7C568A9420DD34D1EEC18B5
:109F20000569AC4208D8CDF82880DEF80C40A4467C
:109F300003B0BDE8F0436047044B05480E4AC01A21
:109F4000C0081024044B009400048BE7E4150300C0
:109F5000341603009C180300451A0300A1180300DF
:109F60001E190300CA180300DD180300241903009A
:109F70004E1903006619030089190300F7B580B96B
:109F80002A4B2B482B4AC01AC0080E242A4B009497
:109F900000042A4940F00100FDF76DFD204603B0A2
:109FA000F0BDD0F800C0BCF1000F09D11F4B204814
:109FB000234AC01AC00808241F4B00940004E8E795
:109FC0004AB91A4B1A481F4AC01AC00809241A4B2A
:109FD00000940004DDE74568D5F800E00EF1FF3598
:109FE0000D4209D0114B1248174AC01AC00810245C
:109FF000114B00940004CCE7C568A9420CD34D1E58
:10A000000EFB02540569AC4206D8DCF81040A446A9
:10A0100003B0BDE8F0406047044B05480B4AC01A46
:10A02000C0081024044B00940004B2E7E4150300B8
:10A03000341603009C180300321A0300A118030011
:10A04000CA180300DD180300B0190300D619030075
:10A0500029DF704728DF704770B503689E6886B0B7
:10A0600004460D466EB114220021684607F00DFA31
:10A07000A3680593237901952BB1012B0DD0684678
:10A08000B04706B070BD01238DF8003023690293FC
:10A09000E368039363690493F1E702238DF80030CA
:10A0A000E3681B030293F5E70846704700207047FA
:10A0B000024B187A003818BF012070476034002026
:10A0C000034B187A0122B0FA80F05A7440097047A5
:10A0D0006034002008B510461A4607F0ADF900209C
:10A0E00008BD000008B514220021044807F0CDF98E
:10A0F0000348FFF7F8FA002008BD00BF60340020D5
:10A100005034002010B5094C094B43602046FFF73E
:10A1100037FC40B906F038FF064920741C23064876
:10A120008C22FFF7CDFA002010BD00BF6034002064
:10A130006C1A0300C43300205034002038B5234D7E
:10A14000234C2B7A3BB923492348FFF728FB206097
:10A1500008B9686038BD022324682B72237973B173
:10A16000012B24D020460321FFF776FF00232B721A
:10A170006B6018491848BDE83840FFF73BBBD4E98D
:10A180000523D21AB2F5805FD4E9031028BF4FF43B
:10A1900080529208012A38BF012219441844FFF75F
:10A1A00057FF50B11128DDD101232B72D2E7D4E93A
:10A1B00003031844FFF74EFFF3E72B7C002BC9D1B4
:10A1C000BDE83840022000F009B800BF603400202C
:10A1D00078340020743400205034002038B5234CEB
:10A1E000237A002B41D0022B09D1032830D0204BF9
:10A1F00000221B68E2601A793AB1012A22D0637CFE
:10A200007BBBBDE83840FFF799BFD3E905128D1A33
:10A21000B5F5805F94BF521902F580529A61914260
:10A22000EDD102284FF0000308BF19462372104BEE
:10A2300018BF0D211868FFF70FFF0E490E48FFF7F2
:10A24000D9FADCE71A6901321A615B699A42E7E7D9
:10A25000E3680133082B01D8E360D0E70023E36013
:10A26000DFE7BDE8384006F07FBE38BD603400202F
:10A27000783400207434002050340020831E012BD9
:10A2800001D8FFF7ABBF704700F0FD03012B08D1E9
:10A29000044B00225A74421E504250411874FFF77A
:10A2A0004DBF70476034002010B5064C201DFFF7ED
:10A2B00067FB28B9637C1BB9BDE81040FFF73EBFC0
:10A2C00010BD00BF603400202DE9F34180460D46EB
:10A2D000104801A916461F46FFF727FA0446B0B1F9
:10A2E00018220021043007F0D0F82D0B0123237130
:10A2F00001A90848C4F80080A760E5606661FFF71F
:10A300003EFAFFF7D1FF002002B0BDE8F081042043
:10A31000FAE700BF503400202DE9F34180460F4694
:10A320000F4801A916461D46FFF7FFF90446A8B1DC
:10A3300018220021043007F0A8F8089BA36001A9A7
:10A34000C4E903670648C4F800806561FFF717FA9F
:10A35000FFF7AAFF002002B0BDE8F0810420FAE771
:10A36000503400202DE9F84FB0F806A04579D2F816
:10A3700000B09DF828900AFB05F5043D88460BEBDC
:10A380000301A94203F1040488BFA5EB030BB4FB4E
:10A39000FAF607460AFB1644C2F800B04EB9AAEB1B
:10A3A00004055D4528BF5D46BBF1000F04D1BDE843
:10A3B000F88F3F68013EF1E7043408EB06003C44A7
:10A3C0002A46B9F1000F0DD02146ABEB050B07F083
:10A3D00033F8DA452E443F6855464FF0000428BF55
:10A3E0005D46E1E701462046EFE7FFF7D2BAF8B550
:10A3F00046790146721E0546002393422D6803D319
:10A400000024A64202D8F8BD0133F6E70F682846BB
:10A41000FFF7FAFA01343946F3E72DE9F843068AE3
:10A42000CD1C0746FFF7CCFA043E35440446B5FB85
:10A43000F6F5F0B14FF48073EDB28380C680013D34
:10A44000076081464FF00008A84512D23846FFF752
:10A45000B7FA064648B163790133637108F1010820
:10A46000C9F8000007608146EEE72046FFF7BFFF0E
:10A4700034462046BDE8F88301210430FFF768BA6E
:10A4800010B5012104460430FFF76EFAC0B220B9BE
:10A490002046BDE81040FFF7AABF10BD1FB50392CC
:10A4A0000022009203AAFFF75DFF05B05DF804FBF0
:10A4B0001FB503920122009203AAFFF753FF05B0D4
:10A4C0005DF804FB41DF7047064B10B500241C709B
:10A4D000054B1C60BFF35F8F0449054800F03BF853
:10A4E000204610BD8434002088340020A41A0300C4
:10A4F0007C34002007B500230DF107008DF80730EC
:10A50000FDF7FCFFF1EE103A23F09F03E1EE103A65
:10A51000BFF35F8F0A4B4022C3F884219DF80700E8
:10A52000FEF710F806F030FD20B103B05DF804EB43
:10A53000FFF7C8BF20BF40BF20BF03B05DF804FBDA
:10A5400000E100E0836800225A60C3E904229A60B7
:10A55000DA601A6070470B684A684360934208BF2C
:10A560000023016008BF43607047436843B102683D
:10A57000916852680B449342436004BF00234360D8
:10A58000704770B5446806460D46206818B1B36838
:10A590002946984718B923682B60256070BD246848
:10A5A000F3E74368186808B102681A6070474368A7
:10A5B000186870474368186800B97047884203D12B
:10A5C00002681A600120704703460068F4E7000043
:10A5D00010B50D49A1F59472914201D800200FE009
:10A5E0008C1AE30F03EBE4035B1002EBC30452F895
:10A5F0003330834205D802D204F10802ECE76068E8
:10A6000010BD2146E8E700BFB01F030008B5FFF703
:10A61000DFFF024B002808BF184608BD731E030069
:10A620004FF08053D3F83001A0F10803584258414D
:10A63000704700004FF08053D3F83021082A06D12C
:10A64000D3F83431052B02D8024AD05C7047002081
:10A65000704700BFB61F0300024AD2F80034002B37
:10A66000FBD0704700E0014010B5FFF7D9FF40B1C3
:10A670004FF080430022C3F80C21C3F81021C3F827
:10A680003825FFF7CDFF002846D04FF08052654BAC
:10A69000D2F80414C3F82015D2F80814C3F824150E
:10A6A000D2F80C14C3F82815D2F81014C3F82C15DE
:10A6B000D2F81414C3F83015D2F81814C3F83415AE
:10A6C000D2F81C14C3F84015D2F82014C3F844156E
:10A6D000D2F82414C3F84815D2F82814C3F84C153E
:10A6E000D2F82C14C3F85015D2F83014C3F854150E
:10A6F000D2F83414C3F86015D2F83814C3F86415CE
:10A70000D2F83C14C3F86815D2F84014C3F86C159D
:10A71000D2F84424C3F87025FFF78CFF18B1424BE0
:10A72000424AC3F88C26FFF785FF18B1404BFB2245
:10A73000C3F81825FFF77EFF70B14FF080414FF04E
:10A740008053D1F8E42ED3F8583222F00F0203F0F0
:10A750000F031343C1F8E43EFFF76CFF20B1354B04
:10A760004FF40072C3F84026FFF75AFF48B14FF08C
:10A770008043D3F80024D20744BF6FF00102C3F82E
:10A7800000242D4AD2F8883043F47003C2F8883090
:10A79000BFF34F8FBFF36F8F4FF08053D3F830214B
:10A7A000082A0ED1D3F83431052B02D8234AD35CC2
:10A7B0003BB14FF01023D3F808224FF08043C3F889
:10A7C00058254FF01023D3F80022002A03DBD3F8DA
:10A7D0000432002B22DA1A4901234FF01020C1F86D
:10A7E00004351224FFF738FFC0F80042FFF734FFAA
:10A7F000C0F80442FFF730FF0023C1F80435FFF72B
:10A800002BFFBFF34F8F0C490E4BCA6802F4E06276
:10A810001343CB60BFF34F8F00BFFDE70A4B0B4ADA
:10A820001A6010BD00C00040005000404881030085
:10A8300000F000400090024000ED00E0B01F030077
:10A8400000E001400400FA05402B00200090D003F6
:10A85000074B1B5C1F2B8ABF064A4FF0A04203F038
:10A860001F03D2F80405D840C04300F00100704730
:10A87000C01F030000030050074B1B5C1F2B86BF4B
:10A88000064903F01F034FF0A041012202FA03F32F
:10A89000C1F80C35704700BFC01F03000003005013
:10A8A000074B1B5C1F2B86BF064903F01F034FF0AD
:10A8B000A041012202FA03F3C1F80835704700BF36
:10A8C000C01F03000003005008B50020FFF7E8FF99
:10A8D0000120FFF7E5FF0220FFF7E2FFBDE8084097
:10A8E0000320FFF7DDBF08B50020FFF7C5FF0120FB
:10A8F000FFF7C2FF0220FFF7BFFFBDE808400320BB
:10A90000FFF7BABF0A4B185C1F288ABF094B4FF0EC
:10A91000A04300F01F00D3F804250121814021EA63
:10A9200002000A40C3F80805C3F80C25704700BFB1
:10A93000C01F030000030050074B1B5C1F2B8ABF86
:10A94000064A4FF0A04203F01F03D2F81005D8408A
:10A95000C04300F001007047BC1F0300000300501B
:10A960000B2809D00C2809D0182809D019280CBFA9
:10A9700003204FF0FF3070470020704701207047E0
:10A9800002207047014B185C704700BFBC1F0300DA
:10A99000C20710B504460CD54FF0A0430322C3F8FC
:10A9A0003427C3F83827C3F83C27C3F84027FFF7FC
:10A9B0008BFFA3070AD54FF0A0430C22C3F82C2726
:10A9C000C3F83027C3F86027C3F8642710BD000020
:10A9D00038B5074C051E04F1080318BF1C46236850
:10A9E0002BB11A6822605B6828469847F7E738BDA4
:10A9F0009434002020B9054B01225A70FFF7E8BFBC
:10AA0000012802D1014A9070F8E770478C34002089
:10AA100020B9034B01225A70FFF7DABF704700BF1D
:10AA20008C34002038B50E4C2378B3B90D486360E0
:10AA3000A3602361E36000F0E7F8054606F0A4FA9E
:10AA400008B900F0EDF801232370074BD3F8003468
:10AA50000BB10123A370284638BD8525F5E700BF5B
:10AA60008C340020F5A902000000014037B50D4CE0
:10AA700000230DF107008DF80730FDF73FFDE36877
:10AA8000013BE360E36833B9074BD3F8005415B9D1
:10AA900000F0D8F8A5709DF80700FDF753FD03B04E
:10AAA00030BD00BF8C34002000000140012813B5E8
:10AAB0000CD0032820D038B9134B0122C3F88020D2
:10AAC000BFF34F8FBFF36F8F02B010BD0F4C002349
:10AAD0000DF107008DF80730FDF710FD23780BB955
:10AAE000FFF7A0FFE3689DF807000133E36001234F
:10AAF000A370FDF727FDE7E700F092F802B0BDE88C
:10AB00001040FFF7B3BF00BF00E100E08C3400202D
:10AB10001FB503788DF800304368019383688DF882
:10AB20000830C368054A0393054B684653F8213043
:10AB300052F82110984705B05DF804FBA0340020BE
:10AB4000A83400201FB503788DF8003043680193C6
:10AB500083688DF80830C368054A0393054B68463F
:10AB600053F8213052F82110984705B05DF804FBE6
:10AB7000A0340020A8340020F0B5194B90F800C094
:10AB8000DFF86CE043F82C20164B16460A6943F8B0
:10AB90002C204B7F0EF80C300C4607460FCC89B0AA
:10ABA0006D460FC594E80F0085E80F003B78CDF89F
:10ABB00010C01EF803304BB1002E0B4A694608BF87
:10ABC0003246381D00F0FCFD09B0F0BD002E074AEA
:10ABD000694608BF324607F10C0000F0B5FBF3E709
:10ABE000A8340020A034002011AB020045AB0200C5
:10ABF000B034002000F18040002382B0036003687D
:10AC00000193019B02B07047044A137923B90121D3
:10AC1000106091801846704785207047B43400203A
:10AC2000074B1A68D20704D4C02283F800230122FC
:10AC30001A604FF080430122C3F81825704700BF07
:10AC400000E100E04FF0804208B50223C2F808336B
:10AC50004FF48270FFF7CEFF0123D360D2F818348F
:10AC6000DB03FBD408BD00004FF0804110B5D1F8E4
:10AC7000003163B14FF48070FFF7BCFF0D4B587982
:10AC80000122C1F8082310B95A711B6898474FF088
:10AC90008042D2F8043163B14FF48270FFF7AAFF0B
:10ACA0000223C2F80833034BBDE810401B680120A3
:10ACB000184710BDB434002000F1804000F5C040BA
:10ACC000002382B0036003680193019B02B07047C8
:10ACD00003681F2B83BF03F01F03036001484FF07D
:10ACE000A04070470003005007B5019001A8FFF78E
:10ACF000EFFF019B00EB8300D0F8003723F44033D3
:10AD0000C0F80037D0F8003743EA0141C0F8001717
:10AD100003B05DF804FB0000054B4FF0FF3207283D
:10AD200043F8202084BFC01880F85820704700BF27
:10AD3000BC34002038B51D4991F86A30A3BB4FF6EA
:10AD4000FF70FF245A09012A0CBF02464FF0FF3260
:10AD500003F01F05EA40D20748BFCA1803F10103F8
:10AD600048BF82F83040302BECD10024E0B20134EF
:10AD7000FFF7D2FF0C2CF9D10D4B00224A669A80C6
:10AD80000C4BC02083F80603402018604FF4BE70BF
:10AD9000FFF792FF084B4FF00040C3F80403012374
:10ADA00081F86A30104638BD0820FCE7BC3400202A
:10ADB0002035002000E100E000600040034B93F8E4
:10ADC0006A00003818BF0120704700BFBC34002063
:10ADD000F7B53D4F3B18044693F93030002B71DA3C
:10ADE0008B78C3F34003002B0BBF082500250C20F4
:10ADF0000820854202D1042003B0F0BD57F8256039
:10AE0000013647D138196EB247F8252080F83060F6
:10AE100013B97B1983F858408B785A071AD4D8078E
:10AE20003AD501A80194FFF753FF019B00EB830083
:10AE3000D0F8003723F00203C0F800372348E208B7
:10AE400004F0070C012303FA0CF310F802C043EAE4
:10AE50000C03835488780B7810F0020028D0AD00E2
:10AE600005F1804505F5C0452402D5F8102522F4EA
:10AE70004F3222F44072C5F810251B04D5F8102576
:10AE800004F47C5403F440331C431443C5F81045C8
:10AE90000020B1E70135ACE701A84A780194FFF73B
:10AEA00017FF019B03F5E073920040F82320C5E7EC
:10AEB000083E47FA86F797F8604044EA831387F81C
:10AEC000603099E7082097E7BC3400202035002047
:10AED00073B5244D2E18044696F93020072A1DDD3F
:10AEE000083A45FA82F595F860309B09032B10D19A
:10AEF000019001A8FFF7ECFE019BD0F81015D94096
:10AF000001F001010231204602B0BDE87040FFF7B8
:10AF1000EBBE012B0CBF02210321F4E7D3B2072BB8
:10AF20001DD8930003F1804303F5C043D3F8100507
:10AF300040F00100C3F8100502F1400040B280006B
:10AF400080B2FFF7B9FE51B196F9303055F8233091
:10AF50002BB1012303FA02F2034BC3F8042302B01E
:10AF600070BD00BFBC3400200060004007B50190F8
:10AF700001A8FFF7ADFE019BD0F81005D84000F006
:10AF8000010003B05DF804FB2DE9FF470024CDE983
:10AF90000244584D4FF48072012102F1804303F5C1
:10AFA000C04390B21B68012B06D1D5F804330B4285
:10AFB00002D0FFF781FE0C430432B2F5907F4FEAD6
:10AFC0004101EAD14B4BD3F87C31012B11D14FF425
:10AFD000BE70FFF771FE4FF0A04344F00044D3F879
:10AFE00020250292C3F82025D3F820280392C3F825
:10AFF0002028E3B2D3B1404F00250126344210D0BF
:10B00000AB0003F1804303F5C043D3F81005D3F838
:10B01000101557F8253023B1C1F30141C0F30520C5
:10B0200098470135082D4FEA4606E7D1002C59DA3A
:10B03000314D324C324E4FF00008012716F9013BDA
:10B040005A1C3CD0C3F3C201103169445FFA83F942
:10B0500011F8081C03F03F0203F0070307FA03F39B
:10B0600019422CD001A80192FFF732FE019B03F593
:10B07000E07350F82330C3F3014ABAF1020F0CBF5A
:10B08000032102211046FFF72FFE01A80192FFF7CE
:10B090001FFE019B07FA03F3C0F82035AB1893F9A4
:10B0A000303055F8233053B14FEA9911032904D0B9
:10B0B000BAF1020F19D1012901D11046984708F1C0
:10B0C0000108B8F1040FB9D14FF0A043D3F82025FF
:10B0D0000292C3F82025D4F820350393C4F8203514
:10B0E0001343A7D104B0BDE8F087BAF1030FE6D14E
:10B0F0000229E1E700600040BC340020000300505A
:10B100001C350020014B1B68184700BF2835002064
:10B110000E4B984237B50C4602D0002003B030BD2C
:10B1200000230DF107008DF80730FDF7E7F9084B14
:10B130001D7915B901221C601A719DF80700FDF7F1
:10B1400001FA002DE9D01120E8E700BF00200040FF
:10B1500028350020034B984201BF034B00221A60A0
:10B160001A7170470020004028350020002343500A
:10B1700082B043580193019B02B070470A4610B554
:10B180004FF48E71FFF7F2FF136A9168C95C136A7E
:10B1900001331362C0F81C1510BD8B690A4610B547
:10B1A0004FF4847123B9FFF7E1FFD0F8183510BDD3
:10B1B000FFF7DCFF536AD168D0F81805C854536A0A
:10B1C00001335362F3E700001FB501238DF800300F
:10B1D000044BCDE90110D3E900126846904705B051
:10B1E0005DF804FB3035002030B54D4DD5F8043303
:10B1F0009A0585B051D5D5F82431002B4DD04FF4A8
:10B2000092712846FFF7B2FF4FF40173C5F8083377
:10B21000444B93F829200AB901226A60404902226E
:10B220008DF80020D1F88024C1F8802403929A6917
:10B230000292DA6801920022C3E906226846D3E945
:10B24000001290473648D0F81C315BB1354A51693D
:10B25000136A99424DD992F82830002B49D11146F2
:10B26000FFF78CFF2E48D0F84431002B56D04FF416
:10B27000A271FFF77BFF2B4B93F829200AB1012223
:10B2800002609A69002A49D0586AD96800229A61F6
:10B2900005B0BDE83040FFF797BFD5F804335B0732
:10B2A000D0D5D5F80831002BCCD01E4C1C482146F7
:10B2B000FFF773FF636AA2699A42C3D1E369E16849
:10B2C0004BB1A3612369E3600023606AE3616362B9
:10B2D000FFF77AFFB6E794F829300BB901236B60CA
:10B2E0000F4B4FF40172C3F808230023606AA36177
:10B2F000EEE70B484FF48E71FFF738FF5369002BD0
:10B30000B0D051690291002391688DF8003001910D
:10B3100053616846D2E900139847A3E705B030BDF2
:10B3200000200040303500201F2886BF00F01F009D
:10B33000044B4FF0A04300F5E070022243F82020B8
:10B34000704700BF000300502DE9F843604D90F8AE
:10B3500004802C2303FB0853064693F82A300C463E
:10B360009146002B40F0AF805A490068FFF7D0FEAD
:10B370000746002840F0A9802268531C10D01F2ADD
:10B3800087BF554902F01F0313464FF0A04101202B
:10B39000984003F5E073C1F80805032041F8230045
:10B3A0006168481C0DD01F298BBF01F01F030B469D
:10B3B00049484FF0A04003F5E0734FF0000C40F80F
:10B3C00023C03068A369C0F8243594F814C0637DA5
:10B3D000BCF1010F4CEA0303C0F86C35C0F814153A
:10B3E000C0F80C252BD1A368591C0DD01F2B8BBF87
:10B3F00003F01F021A4638494FF0A04102F5E072EF
:10B400004FF0000C41F822C0E1684A1C13D01F29FC
:10B4100087BF314A01F01F0C8C464FF0A0424FF01D
:10B42000010E0EFA0CFE0CF5E07CC2F808E54FF0B8
:10B43000030E42F82CE0C0F80815C0F810352C2295
:10B4400002FB08F2AB18C3F804902369AB50B9F1C2
:10B45000000F20D04FF48E71247FFFF787FE4FF44A
:10B46000A2713068FFF782FE32681C4BC2F80433C9
:10B47000130B42F307326101002AC9B21EDB1848E0
:10B48000841884F800130121520903F01F0301FA04
:10B4900003F340F8223033680422C3F800252C233C
:10B4A00003FB08530022C3E9062283F829205A61CE
:10B4B000012283F82A203846BDE8F883094A03F0C0
:10B4C0000F03D154E7E70827F5E71127F3E700BF9B
:10B4D00030350020E9B10200000300508000020076
:10B4E00000E100E014ED00E02DE9F041036805798A
:10B4F000284C0022C3F800252C2202FB05420146FD
:10B500005268A2B1244AC3F808231A0B43F3073345
:10B51000002B0CDB02F01F005B090122824020336C
:10B520001E4840F82320BFF34F8FBFF36F8F0B6887
:10B53000D3F80C05D3F81485D3F80865D3F8107543
:10B540004FF0FF329042C3F81425C3F80C25C3F81E
:10B550000825C3F8102501D0FFF7E6FEB8F1FF3F3C
:10B5600002D04046FFF7E0FE7A1C02D03846FFF7D3
:10B57000DBFE731C02D03046FFF7D6FE0868FFF7EB
:10B58000E9FD2C2303FB0544002384F82A30636083
:10B59000BDE8F081303500208402020000E100E0C7
:10B5A0000279044B2C2101FB02335869003818BF83
:10B5B00001207047303500202DE9F84F064690F8FD
:10B5C000048089469246FFF7EBFF044600283CD1F1
:10B5D000204F2C2508FB057B4FF48E71CBF814A06F
:10B5E000CBF80890CBF820008BF828003068FFF7E4
:10B5F000BDFD3068012383605946FFF7BFFDDBF8CE
:10B6000004305D461BBB3068DBF814402B6A9C425B
:10B6100011D83368D3F81C21002AFBD00122DA604C
:10B6200000202C2303FB087700237B61BDE8F88F03
:10B6300095F828303BB9D0F81C31002BF8D059468A
:10B64000FFF79CFDE2E70F20EBE71120EEE7204635
:10B65000ECE700BF303500200023435082B0435850
:10B660000193019B02B070471FB501238DF8003094
:10B67000044BCDE90110D3E900126846904705B0AC
:10B680005DF804FB5C3500207FB5434AD2F82461A5
:10B69000002E60D010464FF49271FFF7DDFF0223B9
:10B6A0008DF80030D2F88034C2F880340393D2F899
:10B6B0003C350293394BDA6801920022C3E9062235
:10B6C0006846D3E9001290473348D0F8443173B14B
:10B6D0004FF4A271FFF7C0FF304B9A693AB10022D4
:10B6E000C3E90622D968D0F83C05FFF7BDFF2A4818
:10B6F000D0F82031ABB14FF49071FFF7ADFF0123CB
:10B70000C360264B5A6962B1D0F84C1502910022F1
:10B7100099688DF8002001915A616846D3E90012BA
:10B7200090471D48D0F858319BB14FF4AC71FFF7EA
:10B7300093FF1A4B5A6962B1D0F84C15029100225E
:10B7400099688DF8002001915A616846D3E900128A
:10B75000904704B070BDD2F81031002BB4D04FF434
:10B7600088711046FFF778FF0C4BD2F83C059969B9
:10B770008842A9D1DC69D96864B1D2F8005225F0B9
:10B780002005C2F800521A699C61DA60DE61FFF799
:10B790006BFF99E79C61FAE7002000405C350020D0
:10B7A0001F2886BF00F01F00044B4FF0A04300F598
:10B7B000E070022243F82020704700BF00030050D1
:10B7C0002DE9F843664E90F80480242303FB0863B8
:10B7D000044693F820300D469146002B40F0BC8083
:10B7E00060490068FFF794FC0746002840F0B680E7
:10B7F00029684B1C10D01F2987BF5B4A01F01F032B
:10B800000B464FF0A0420120984003F5E073C2F8C8
:10B810000805032042F823006A68501C0DD01F2A37
:10B820008BBF02F01F0313464F484FF0A04003F5B3
:10B83000E0734FF0000C40F823C02068AB69C0F8FB
:10B84000243595F814C06B7DBCF1010F4CEA03035D
:10B85000C0F86C35C0F80C15C0F814252BD1AB68B6
:10B86000591C0DD01F2B8BBF03F01F021A463E49F7
:10B870004FF0A04102F5E0724FF0000C41F822C0F9
:10B88000E9684A1C13D01F2987BF374A01F01F0CF3
:10B890008C464FF0A0424FF0010E0EFA0CFE0CF554
:10B8A000E07CC2F808E54FF0030E42F82CE0C0F847
:10B8B0000815C0F81035242202FB08F2B318C3F8AB
:10B8C00004902B69B350B9F1000F2FD04FF4887159
:10B8D0002A7FFFF7C1FE20684FF49071FFF7BCFE8E
:10B8E00020684FF49271FFF7B7FE20684FF4A27101
:10B8F000FFF7B2FE4FF4AC712068FFF7ADFE23688E
:10B900001A49C3F80413190B43F307335201002BF0
:10B91000D2B21CDB1648C51885F8002301225B094A
:10B9200001F01F0102FA01F140F8231023680822F8
:10B93000C3F80025242303FB08660023C6E9063369
:10B940007361012386F820303846BDE8F883094B3F
:10B9500001F00F015A54E9E70827F5E71127F3E74B
:10B960005C35002089B6020000030050100342003D
:10B9700000E100E014ED00E02DE9F0413D4D0679D5
:10B980000468242303FB065302465B68ABB13A4BC1
:10B99000C4F8083344F30733002B4FEA14310CDBAF
:10B9A00001F01F005B09012181402033334840F83A
:10B9B0002310BFF34F8FBFF36F8FD4F8003223F003
:10B9C0002003C4F80032242303FB06539B6933B1E0
:10B9D0004FF4A2712046FFF73FFE012363604FF44E
:10B9E000AC712046FFF738FE0123E360242303FBFC
:10B9F0000653D4F858110029FBD0996919B1D4F82D
:10BA000044110029F5D00023C4F800351368D3F899
:10BA10000C05D3F81485D3F80815D3F810754FF03A
:10BA2000FF329042C3F80C25C3F81425C3F808254B
:10BA3000C3F8102501D0FFF7B3FEB8F1FF3F02D0E5
:10BA40004046FFF7ADFE7A1C02D03846FFF7A8FE4D
:10BA50004B1C02D00846FFF7A3FE2046FFF77AFBF7
:10BA6000242303FB0655002385F820306B60BDE8D6
:10BA7000F08100BF5C3500201003420000E100E0CF
:10BA80000279044B242101FB02335869003818BFA6
:10BA9000012070475C35002001F06043B3F1005F86
:10BAA0002DE9F0470646884692463BD190F804902F
:10BAB000FFF7E6FF0446002836D11D4F30682425E5
:10BAC00005FB09754FF49071C5F814A0C5F80880FE
:10BAD000FFF7C2FD4FF4AC713068FFF7BDFD33686E
:10BAE0006A69A968C3F84415C3F8482501229A6019
:10BAF0006A68DAB9D3F82021D3F858011AB90028B6
:10BB0000F8D00F2007E00028FBD10122DA60D3F83B
:10BB10005821002AFBD0242303FB097700237B61F3
:10BB2000BDE8F0871020FBE71120F9E72046F7E792
:10BB30005C3500201F288ABF094B4FF0A04300F05E
:10BB40001F0003EB8000D0F8003723F44033C0F827
:10BB50000037D0F8003743EA0141C0F800177047BA
:10BB6000000300500220FEF7CDBE00002DE9F04793
:10BB700080460D46FEF7F4FE0328044610D8012D3A
:10BB800010D0022D30D05DB91A48FCF7ADFB1A4B2E
:10BB900004EB440213449D78184B1B5DAB4219D053
:10BBA000BDE8F087144E00EB4003F218F55C5378C3
:10BBB000470053B1DFF84C900E484A464FF480419D
:10BBC000FCF764FB08B989F8008027443E440B4B1E
:10BBD000B2781A55002DE3D0094B1B68002BDFD03B
:10BBE0002846BDE8F047184700EB400402480444EB
:10BBF0006578EFE7682B0020823500209D35002016
:10BC0000983500208035002000780221FFF7AEBF74
:10BC100008B5094B1B7853B10020FEF741FE012007
:10BC2000FEF73EFEBDE808400320FEF739BEBDE842
:10BC30000840FEF749BE00BF81350020F8B57A4CB8
:10BC4000237805461BB100232370FFF7E1FF172D72
:10BC500000F28780DFE805F00C1717425364757F08
:10BC6000878C878C949999999999C3C8D0D8E3E324
:10BC7000FFF7CEFF6D48FCF737FB6D4B0022044603
:10BC80001A702046F8BD0020FEF7E2FDF0B100205A
:10BC9000FEF706FE022D0CBF4FF4E1644FF47A6408
:10BCA000634B1D7000254FF400464FF47A7029460F
:10BCB0004FF4FA620023E4FB060105F0C5FA2A46B8
:10BCC0000146BDE8F8405948FCF7E0BAFEF7D4FD5C
:10BCD000022D0CBFC8244FF4C874E1E70020FEF722
:10BCE000B7FD40B10020FEF7DBFD4FF44874504B28
:10BCF00003221A70D6E7FEF7BFFDC824F7E700203D
:10BD0000FEF7A6FD38B10020FEF7CAFD4FF47A64B5
:10BD1000474B0422EDE7FEF7AFFD4FF4C874F7E799
:10BD20000020FEF795FD48B10020FEF7B9FD404B1D
:10BD300005221A7040F6CD410022C2E7FEF79CFDB5
:10BD4000F5E70020FEF7DEFD394B06221A700022CF
:10BD500040F26661B5E70020FEF78EFD344B072206
:10BD60001A7000248DE701202070FEF7CBFDEEE76E
:10BD700001202070FEF7C6FD00224FF40051A0E71D
:10BD8000FEF7B1FD2A4B0C22EAE72A482A4EFCF7BF
:10BD9000ABFAD5F1110504461CD0D8B9012D13D04A
:10BDA000C820454321464FF400474FF47A704FF4C2
:10BDB000FA620023C5FB070105F046FA2246014658
:10BDC0001C48FCF763FA04460220FEF755FD0123E8
:10BDD000337056E70220FEF763FD0023F8E7FFF714
:10BDE00017FF134B1222BBE7FFF712FF0020FEF7ED
:10BDF00043FD0F4B1322B3E7FFF70AFF0120FEF7C5
:10BE00003BFD0B4B1422ABE7FFF702FF0020FEF7D0
:10BE100033FD0120FEF730FD054B1522A0E7FEF7AC
:10BE200062FD034B1D709CE794350020882B002099
:10BE30009C350020482B002081350020044B1B68D6
:10BE4000DB0703D5034B1878FFF7F8BE704700BF38
:10BE5000903500209C350020032801D8FEF76CBDEA
:10BE600000207047044B1B6813F0010301D0FFF75B
:10BE7000E5BE1846704700BF9035002038B51C4B12
:10BE800018601C4B10F00204054619601AD01A4BBA
:10BE90001A480E221A700F22DA7010229A7111229B
:10BEA0005A72042140F23332FCF75EF8044648B976
:10BEB000FCF7B2F8044628B90146114A1148FCF7CC
:10BEC000D3F90446EB0711D50120FEF761FD6CB9EB
:10BED00021460D4A0D48FCF7C7F9044630B9BDE8C4
:10BEE00038400B4A0B480121FCF7BEB9204638BD4B
:10BEF000903500209835002082350020E81F03008F
:10BF000009BC02000C2003003DBE0200102003000B
:10BF100065BB020008200300032811D8012A0AD1BA
:10BF200001290FD100F10E02D2B20D4B00EB4000FF
:10BF30001A54002070470129F7D0022904D049B1D2
:10BF4000072070470022F8E7054B00EB400018443B
:10BF50004270EEE7024B00EB400018448270E8E7C5
:10BF600082350020032808B506D8FEF70BFD032113
:10BF7000FFF7E0FD002008BD0620FCE708B5012220
:10BF800002210020FFF7C8FF08B1072810D10722BF
:10BF900002210120FFF7C0FF08B1072808D10021C6
:10BFA0000A220846FFF7B8FF10B1072808BF002093
:10BFB00008BD00000388102B10B502D0112B1ED035
:10BFC00010BD1A4C2168B1B901220846FFF7A4FF41
:10BFD00008B1072824D1072202210120FFF79CFF86
:10BFE00008B107281CD1042202210020FFF794FF8A
:10BFF00008B1072814D1236801332360E0E70B4A16
:10C000001368013B1360002BDAD1FFF7B7FF00285C
:10C01000D6D0074B1B68002BD2D0BDE81040184784
:10C02000034B1B68002BE6D09847E4E7A8350020B7
:10C03000A435002008B50020FFF794FF08B10628BA
:10C0400006D10120FFF78EFF10B1062808BF00209F
:10C0500008BD00000D4B10B518600C4629B1012039
:10C06000FFF7FAFE40B102232370094B1B6853B956
:10C07000BDE81040FFF782BFFFF7EEFE08B10B23CB
:10C08000F2E72070F1E7002010BD00BFA4350020CA
:10C09000A835002076DF70477ADF70477CDF704775
:10C0A0008FDF704733DF70474CDF70474FF0A0429F
:10C0B0000123D2F8041503FA00F020EA0103084036
:10C0C000C2F80835C2F80C057047FBF7BBBF00008B
:10C0D00013B5134C002301A80193FFF7E5FF01A955
:10C0E000204600F0A5FB0E20FFF7E0FF01A9204647
:10C0F00000F0BDFB0E20FFF7D9FF01A9204600F09C
:10C10000D5FB0E20FFF7D2FF01A9204600F0EDFB82
:10C110000E20FFF7CBFF1020FFF7C8FF02B010BDC5
:10C12000F439002008B50020FFF79CFE08B1FBF7AA
:10C1300089FFFFF77FFF08B1FBF784FFFFF7B2FF2E
:10C1400018B1BDE80840FBF77DBF08BD0388212B6F
:10C1500013B5044639D005D8102B19D0112B0AD0AD
:10C1600002B010BD3B2B01D0562BF9D1A088132172
:10C17000FFF790FF22E01C4B1C481D49C01AC00865
:10C18000000440F0030002B0BDE81040FBF75CBCC7
:10C19000154B16481749C01AC008000440F00300A8
:10C1A000FBF752FC0720FFF75DFE08B1FBF74AFFE3
:10C1B000114BA1881148198002F064FB0028CFD0F0
:10C1C00002B0BDE81040FBF73DBF002380888DF82A
:10C1D000043001A98DF80530FFF762FF0028BFD0B9
:10C1E000FBF730FFBCE700BFE41503000C160300AB
:10C1F0001420030022200300AC2B0020183A00205A
:10C2000008B503784BB9054B3B211888FFF742FF6F
:10C2100018B1BDE80840FBF715BF08BDAC2B0020E6
:10C22000072808B513D00A280DD0042819D10D4BC2
:10C2300013211888FFF72EFF30F0080311D0BDE856
:10C240000840FBF7FFBEBDE80840FFF76BBF054B9A
:10C250001A884FF6FF739A4203D1034800F0B4FFE7
:10C26000EAE708BDAC2B0020AC35002008B598B13A
:10C27000032815D10B4B0C480C49C01AC008000408
:10C2800040F00300FBF7E0FB0220FFF7EBFD38B1C5
:10C29000BDE80840FBF7D6BEBDE80840FFF742BF47
:10C2A00008BD00BFE41503000C1603002D20030099
:10C2B00008B50548032100F043FE18B1BDE8084069
:10C2C000FBF7C0BE08BD00BFAC35002010B504466A
:10C2D00003F05AFE204603F07BFE204603F010FCDC
:10C2E00023780D2B03D1BDE81040FFF7E1BF10BD4F
:10C2F000FBF7A8BE00B54FF48041ADB00020FBF7BE
:10C3000005FA08B1FBF79EFEFBF73EF9FBF77AFF53
:10C3100008B1FBF797FE0121704A7148FBF7A4FFB3
:10C3200070490320FFF7AAFD08B1FBF78BFE01A9B6
:10C330000020FFF78FFE08B1FBF784FE9DF8045044
:10C34000FEF7C2F808B1FBF77DFE04F09FFD08B1CF
:10C35000FBF778FE002301A90120019304F062FE9F
:10C3600008B1FBF76FFE01A804F000FF08B1FBF76E
:10C3700069FE11235C498DF8003008226846FFF7FA
:10C380008DFE08B1FBF75EFE0023ADF808305023A8
:10C39000ADF80430A023ADF8063001A84FF4C873FF
:10C3A000ADF80A30FFF778FE08B1FBF74BFE4F48B7
:10C3B000002102F055F908B1FBF744FEAC22002140
:10C3C00001A805F062F802238DF8043040F2016301
:10C3D000ADF8063001234FF49671ADF814308DF8A6
:10C3E000803044F25063CDE92313414A414B424827
:10C3F000069201A92A9300F02EFD08B1FBF722FE58
:10C400003D48012100F024FD3C4B3D48019301A92A
:10C4100002F026FA08B1FBF715FE3A4800F098F84A
:10C420001422002101A805F030F84FF4F0234FF456
:10C43000A032CDE9022303238DF81030324B06934E
:10C4400001A8324B079300F0DDFF08B1FBF7FAFDBE
:10C4500003F016F808B1FBF7F5FD31238DF8043031
:10C4600007238DF8053010238DF8063001A803232B
:10C470008DF807308DF8083003F0A2F808B1FBF70B
:10C48000E1FD234803F084F808B1FBF7DBFD214B05
:10C49000214C2249E41AE408240444F00304204611
:10C4A000FBF7D2FA1E4800224FF48041FBF7EEFE64
:10C4B000022D0FD11B492046FBF7C6FA03F0ACF85A
:10C4C00008B1FBF7BFFDFBF773F90028FBD1FEF7BE
:10C4D00011F8F8E7FFF7ECFEF5E700BFD1C0020066
:10C4E0007020030021C202003F200300E039002039
:10C4F000A82B00206DC20200AC350020CBC002008A
:10C50000183A0020F439002001C20200F1C20200F2
:10C51000CDC20200E41503000C16030048200300FE
:10C52000B02B002062200300A8DF7047AADF70470D
:10C53000AEDF704762DF70470388102B02D0112BEB
:10C5400003D0704783880B8070474FF6FF73FAE77C
:10C550002DE9F04FB44B9BB006AA044603F1100836
:10C56000164618685968154603C5083343452A46D8
:10C57000F7D14AF6CD330DF10E013046ADF80C304F
:10C58000FFF7D8FF08B1FBF75DFD22464FF6FF73BA
:10C5900022F8023B03A90120FFF7C6FF08B1FBF711
:10C5A00051FD0AAAA04B154618685968164603C6DD
:10C5B000083343453246F7D14FF480530DF1120151
:10C5C0002846ADF81030FFF7B5FF08B1FBF73AFD8C
:10C5D0001C22002113A804F058FF01204FF0000195
:10C5E000002360F34201CDE91033ADF808308DF837
:10C5F000061004AB12210DF1080ACDE90E3A8DF8B0
:10C600004C1004234FF00001112260F34201ADF8F9
:10C610004430ADF8403005ABDFF810928DF80420BF
:10C620000DF1040B8DF805208DF80A108DF8082007
:10C6300012936088CDF860B0231D0EAA13A9CDF81F
:10C640001490FFF773FF08B1FBF7FCFC764B2E4606
:10C6500018685968324603C2083343451646F7D175
:10C660004FF400530DF112012846ADF81030FFF7DA
:10C6700061FF08B1FBF7E6FC1C22002113A804F0BF
:10C6800004FF01204FF00001002360F34201CDE9D7
:10C690001033ADF808308DF8061004AB1221CDE947
:10C6A0000E3A8DF84C1004234FF00001112260F374
:10C6B0004201ADF84430ADF8403005AB8DF80420B0
:10C6C0008DF805208DF80A108DF8082012936088E7
:10C6D000CDF860B004F10C030EAA13A9CDF81490A4
:10C6E000FFF724FF08B1FBF7ADFC4F4B2E4618684F
:10C6F0005968324603C2083343451646F7D14FF412
:10C7000040530DF112012846ADF81030FFF712FF2B
:10C7100008B1FBF797FC1C22002113A804F0B5FE1A
:10C7200001204FF0000160F342018DF80610122144
:10C7300000238DF84C104FF000011122CDE9103389
:10C7400060F34201ADF8083004238DF804208DF821
:10C7500005208DF80A108DF8082004AFADF844309C
:10C76000ADF8403005AE6088CDF860B004F1140338
:10C770000EAA13A9CDE90E7ACDF814901296FFF700
:10C78000D5FE08B1FBF75EFC274BAC46186859682C
:10C79000624603C2083343459446F7D14FF48043C1
:10C7A0000DF112012846ADF81030FFF7C3FE08B1B5
:10C7B000FBF748FC1C22002113A804F066FE0120B0
:10C7C0004FF0000160F342018DF8061012210023A2
:10C7D0008DF84C104FF000011122CDE9103360F3B9
:10C7E0004201ADF8083004238DF804208DF80520AF
:10C7F0008DF80A108DF80820ADF84430ADF84030BF
:10C800006088CDF860B004F11C030EAA13A9CDE92D
:10C810000E7ACDF814901296FFF788FE08B1FBF758
:10C8200011FC1BB0BDE8F08F742003001234567861
:10C830007FB503884FF6FF72934215D00422ADF8FE
:10C8400006200022CDF80B208DF80F208288ADF84D
:10C85000082001228DF80A200DF10602CDE90421FD
:10C86000184602A9FFF764FE07B05DF804FB7FB528
:10C8700003884FF6FF72934215D00422ADF80620CC
:10C880000022CDF80B208DF80F208289ADF808200A
:10C8900001228DF80A200DF10602CDE90421184687
:10C8A00002A9FFF745FE07B05DF804FB7FB50388DA
:10C8B0004FF6FF72934215D00422ADF806200022F5
:10C8C000CDF80B208DF80F20828AADF808200122C8
:10C8D0008DF80A200DF10602CDE90421184602A9BF
:10C8E000FFF726FE07B05DF804FB7FB503884FF61F
:10C8F000FF72934215D00422ADF806200022CDF835
:10C900000B208DF80F20828BADF8082001228DF8C6
:10C910000A200DF10602CDE90421184602A9FFF70D
:10C9200007FE07B05DF804FB6DDF704779DF7047E5
:10C930007DDF704764DF70472DE9F04F85B000253B
:10C940000E9CBDF83CB0B4F800A00191074690469B
:10C950001E46A9463A884A450DDC45B12388013B6D
:10C96000A3EB0A039BB2FF2B3AD806F80A3000204B
:10C9700005B0BDE8F08F7A6852F8290003900022D4
:10C980000DF10B0103A8FFF7D5FF0028F0D19DF8AA
:10C990000B20424521D12288002D14BF0020022007
:10C9A00002EB0801014459451ADC3DB9013292B24B
:10C9B000019B2280B35422880132228022880DF10B
:10C9C0000B01324403A8FFF7B5FF0028D0D121881E
:10C9D0009DF80B200A442280012509F10109B9E7DD
:10C9E0000C20C5E72DE9F341089FBDF824801546CA
:10C9F000CDE90078022204461E46FFF79DFF50B99C
:10CA00003346102229462046CDE9087802B0BDE819
:10CA1000F041FFF791BF02B0BDE8F0812DE9F04F82
:10CA200000231788138090F82D3085B006460D46F8
:10CA300014465BB3082F01D80C2028E102A8FFF7A9
:10CA400073FF002840F023812388DDF809100822B5
:10CA5000EA54238801339BB21B222380EA542388A3
:10CA600001339BB2EA182380E950BDF80D30938062
:10CA700023889DF8082006339BB212F0FE0218BFEF
:10CA800001222380EA54238801332380B378FBB149
:10CA900023880433BB42CFD802A8FFF747FF002802
:10CAA00040F0F58023880322EA54238801339BB2A7
:10CAB00019222380EA542388BDF8082001339BB251
:10CAC000E9182380EA54120A4A702388023323802B
:10CAD000F2789AB12388D91CB942ADD80221E95421
